:0100E00022FD
:0300DD00DFFE2221
:1000B400AE07AF061EEF600C7FF51200DD7FF51270
:0500C40000DD80EE22CA
:03000300020006F2
:0B000600C0E0C0D075D000C006C007ED
:1000110075080075099EB2901200E0E50915097096
:10002100021508E509450870EDD2907F1C1200B455
:1000310075080075091EB2901200E0E509150970F6
:10004100021508E509450870EDD2907F011200B450
:100051007FFF1200DD7F111200DD75080075091E9A
:10006100B2901200E0E509150970021508E509458D
:100071000870EDD2907F031200B47FFF1200DD7F84
:10008100131200DD75080075091EB2901200E0E53B
:1000910009150970021508E509450870EDD2907F30
:0A00A100051200B420B203020011A2
:0900AB00D007D006D0D0D0E0321D
:0800D500D288D2A8D2AF80FE50
:030000000200C932
:0C00C900787FE4F6D8FD7581090200D5AF
:00000001FF
